{
  "contractName": "AzureAuth",
  "abi": [
    {
      "anonymous": false,
      "inputs": [
        {
          "indexed": false,
          "internalType": "address",
          "name": "userAddress",
          "type": "address"
        },
        {
          "indexed": false,
          "internalType": "string",
          "name": "username",
          "type": "string"
        },
        {
          "indexed": false,
          "internalType": "string",
          "name": "email",
          "type": "string"
        }
      ],
      "name": "UserRegistered",
      "type": "event"
    },
    {
      "inputs": [
        {
          "internalType": "address",
          "name": "",
          "type": "address"
        }
      ],
      "name": "users",
      "outputs": [
        {
          "internalType": "string",
          "name": "username",
          "type": "string"
        },
        {
          "internalType": "string",
          "name": "email",
          "type": "string"
        },
        {
          "internalType": "bytes32",
          "name": "passwordHash",
          "type": "bytes32"
        },
        {
          "internalType": "address",
          "name": "userAddress",
          "type": "address"
        }
      ],
      "stateMutability": "view",
      "type": "function",
      "constant": true
    },
    {
      "inputs": [
        {
          "internalType": "string",
          "name": "_username",
          "type": "string"
        },
        {
          "internalType": "string",
          "name": "_email",
          "type": "string"
        },
        {
          "internalType": "string",
          "name": "_password",
          "type": "string"
        }
      ],
      "name": "registerUser",
      "outputs": [],
      "stateMutability": "nonpayable",
      "type": "function"
    },
    {
      "inputs": [
        {
          "internalType": "string",
          "name": "_username",
          "type": "string"
        },
        {
          "internalType": "string",
          "name": "_password",
          "type": "string"
        }
      ],
      "name": "verifyUser",
      "outputs": [
        {
          "internalType": "bool",
          "name": "",
          "type": "bool"
        }
      ],
      "stateMutability": "view",
      "type": "function",
      "constant": true
    }
  ],
  "bytecode": "0x608060405234801561001057600080fd5b50610b84806100206000396000f3fe608060405234801561001057600080fd5b50600436106100415760003560e01c80633f360b4114610046578063a87430ba14610076578063d637dcfa146100a9575b600080fd5b610060600480360381019061005b91906106c0565b6100c5565b60405161006d91906108f6565b60405180910390f35b610090600480360381019061008b9190610697565b6101d8565b6040516100a09493929190610911565b60405180910390f35b6100c360048036038101906100be919061072c565b610338565b005b600080826040516020016100d9919061089a565b604051602081830303815290604052805190602001209050600073ffffffffffffffffffffffffffffffffffffffff166000803373ffffffffffffffffffffffffffffffffffffffff1673ffffffffffffffffffffffffffffffffffffffff16815260200190815260200160002060030160009054906101000a900473ffffffffffffffffffffffffffffffffffffffff1673ffffffffffffffffffffffffffffffffffffffff16141580156101cf5750806000803373ffffffffffffffffffffffffffffffffffffffff1673ffffffffffffffffffffffffffffffffffffffff16815260200190815260200160002060020154145b91505092915050565b60006020528060005260406000206000915090508060000180546101fb90610a96565b80601f016020809104026020016040519081016040528092919081815260200182805461022790610a96565b80156102745780601f1061024957610100808354040283529160200191610274565b820191906000526020600020905b81548152906001019060200180831161025757829003601f168201915b50505050509080600101805461028990610a96565b80601f01602080910402602001604051908101604052809291908181526020018280546102b590610a96565b80156103025780601f106102d757610100808354040283529160200191610302565b820191906000526020600020905b8154815290600101906020018083116102e557829003601f168201915b5050505050908060020154908060030160009054906101000a900473ffffffffffffffffffffffffffffffffffffffff16905084565b600073ffffffffffffffffffffffffffffffffffffffff166000803373ffffffffffffffffffffffffffffffffffffffff1673ffffffffffffffffffffffffffffffffffffffff16815260200190815260200160002060030160009054906101000a900473ffffffffffffffffffffffffffffffffffffffff1673ffffffffffffffffffffffffffffffffffffffff1614610408576040517f08c379a00000000000000000000000000000000000000000000000000000000081526004016103ff90610964565b60405180910390fd5b60008160405160200161041b919061089a565b60405160208183030381529060405280519060200120905060405180608001604052808581526020018481526020018281526020013373ffffffffffffffffffffffffffffffffffffffff168152506000803373ffffffffffffffffffffffffffffffffffffffff1673ffffffffffffffffffffffffffffffffffffffff16815260200190815260200160002060008201518160000190805190602001906104c4929190610577565b5060208201518160010190805190602001906104e1929190610577565b506040820151816002015560608201518160030160006101000a81548173ffffffffffffffffffffffffffffffffffffffff021916908373ffffffffffffffffffffffffffffffffffffffff1602179055509050507f92822564bab8864c3a47b34e8d23fbce5c46234eb5da261f94087b995ac0f33b338585604051610569939291906108b1565b60405180910390a150505050565b82805461058390610a96565b90600052602060002090601f0160209004810192826105a557600085556105ec565b82601f106105be57805160ff19168380011785556105ec565b828001600101855582156105ec579182015b828111156105eb5782518255916020019190600101906105d0565b5b5090506105f991906105fd565b5090565b5b808211156106165760008160009055506001016105fe565b5090565b600061062d610628846109b5565b610984565b90508281526020810184848401111561064557600080fd5b610650848285610a54565b509392505050565b60008135905061066781610b37565b92915050565b600082601f83011261067e57600080fd5b813561068e84826020860161061a565b91505092915050565b6000602082840312156106a957600080fd5b60006106b784828501610658565b91505092915050565b600080604083850312156106d357600080fd5b600083013567ffffffffffffffff8111156106ed57600080fd5b6106f98582860161066d565b925050602083013567ffffffffffffffff81111561071657600080fd5b6107228582860161066d565b9150509250929050565b60008060006060848603121561074157600080fd5b600084013567ffffffffffffffff81111561075b57600080fd5b6107678682870161066d565b935050602084013567ffffffffffffffff81111561078457600080fd5b6107908682870161066d565b925050604084013567ffffffffffffffff8111156107ad57600080fd5b6107b98682870161066d565b9150509250925092565b6107cc81610a0c565b82525050565b6107db81610a1e565b82525050565b6107ea81610a2a565b82525050565b60006107fb826109e5565b61080581856109f0565b9350610815818560208601610a63565b61081e81610b26565b840191505092915050565b6000610834826109e5565b61083e8185610a01565b935061084e818560208601610a63565b80840191505092915050565b60006108676017836109f0565b91507f5573657220616c726561647920726567697374657265640000000000000000006000830152602082019050919050565b60006108a68284610829565b915081905092915050565b60006060820190506108c660008301866107c3565b81810360208301526108d881856107f0565b905081810360408301526108ec81846107f0565b9050949350505050565b600060208201905061090b60008301846107d2565b92915050565b6000608082019050818103600083015261092b81876107f0565b9050818103602083015261093f81866107f0565b905061094e60408301856107e1565b61095b60608301846107c3565b95945050505050565b6000602082019050818103600083015261097d8161085a565b9050919050565b6000604051905081810181811067ffffffffffffffff821117156109ab576109aa610af7565b5b8060405250919050565b600067ffffffffffffffff8211156109d0576109cf610af7565b5b601f19601f8301169050602081019050919050565b600081519050919050565b600082825260208201905092915050565b600081905092915050565b6000610a1782610a34565b9050919050565b60008115159050919050565b6000819050919050565b600073ffffffffffffffffffffffffffffffffffffffff82169050919050565b82818337600083830152505050565b60005b83811015610a81578082015181840152602081019050610a66565b83811115610a90576000848401525b50505050565b60006002820490506001821680610aae57607f821691505b60208210811415610ac257610ac1610ac8565b5b50919050565b7f4e487b7100000000000000000000000000000000000000000000000000000000600052602260045260246000fd5b7f4e487b7100000000000000000000000000000000000000000000000000000000600052604160045260246000fd5b6000601f19601f8301169050919050565b610b4081610a0c565b8114610b4b57600080fd5b5056fea26469706673582212201bf24e379d84da6b602c2af4e773e2a6932ec91d28e814b483933d37bdf7949a64736f6c63430008000033",
  "immutableReferences": {},
  "source": "// SPDX-License-Identifier: MIT\npragma solidity ^0.8.0;\n\ncontract AzureAuth {\n    struct User {\n        string username;\n        string email;\n        bytes32 passwordHash;\n        address userAddress;\n    }\n\n    mapping(address => User) public users;\n\n    event UserRegistered(address userAddress, string username, string email);\n\n    function registerUser(string memory _username, string memory _email, string memory _password) public {\n        require(users[msg.sender].userAddress == address(0), \"User already registered\");\n\n        bytes32 passwordHash = keccak256(abi.encodePacked(_password));\n        users[msg.sender] = User(_username, _email, passwordHash, msg.sender);\n\n        emit UserRegistered(msg.sender, _username, _email);\n    }\n\n    function verifyUser(string memory _username, string memory _password) public view returns (bool) {\n        bytes32 passwordHash = keccak256(abi.encodePacked(_password));\n        return users[msg.sender].userAddress != address(0) && users[msg.sender].passwordHash == passwordHash;\n    }\n}\n",
  "sourcePath": "/Users/home/Documents/azureauth/contracts/azureauth.sol",
  "compiler": {
    "name": "solc",
    "version": "0.8.0+commit.c7dfd78e.Emscripten.clang"
  },
  "schemaVersion": "3.4.16",
  "updatedAt": "2024-05-14T11:39:14.206Z",
  "networkType": "ethereum",
  "devdoc": {
    "kind": "dev",
    "methods": {},
    "version": 1
  },
  "userdoc": {
    "kind": "user",
    "methods": {},
    "version": 1
  }
}